:100000000C94C90D0C94E70D0C94E70D0C94E70DBE
:100010000C94E70D0C94E70D0C94E70D0C94E70D90
:100020000C94E70D0C94E70D0C94FD130C94E70D64
:100030000C94E70D0C94E70D0C94E70D0C94E70D70
:100040000C94E70D0C94E70D0C94E70D0C94E70D60
:100050000C94160E0C94E70D0C94E70D0C94E70D20
:100060000C94E70D0C94E70D0C94E70D0C94E70D40
:100070000C94E70D0C94E70D0C94E70D0C94E70D30
:100080000C94E70D0C94E70D0C94E70D0C94E70D20
:100090000C94E70D0C94E70D80000000003DDE3865
:1000A00080000000003DDE48800000000033DA10D0
:1000B000E883FFF0E863FFF8E8A300183863100056
:1000C0007C0428004082FFF43863F00038C300202D
:1000D0007CC903A64E800420120100020900010819
:1000E000AAAACCCC000100000001090219000101FC
:1000F00000E0320904000001090000000705810347
:1001000001000C092906A900326400FF1201000257
:1001100000000008AAAA55550000000000040902CA
:10012000000F010000800902120001000080FA099E
:1001300004000000FE010200000000000000505317
:1001400046726565646D7C0802A6F821FF61FBC1FB
:100150000090FBE10098F80100B048000009480059
:10016000000C7FE802A64E80002038600FFF7C6301
:1001700018F87FFF18383BC000017BDEF806387F97
:10018000016067C400056084060838A003A6480023
:1001900000D967C30005606306A467C4002E6084AD
:1001A000A820F864003067C30005606306AC67C42C
:1001B000002E6084A820F864003867C300056063DF
:1001C000061067C4002E6084A820F864012038BFA0
:1001D00000E480650000280300004182001880854B
:1001E00000047C63F2149083000038A500084BFFE4
:1001F000FFE4EBC10090EBE10098E80100B038218A
:1002000000A07C0803A64E80002000048A98E882A3
:100210000D5800048A9CE87C002000048AA0F86441
:1002200000000004EB7448001BE9002AABEC4BDA39
:100230005AFC0004E7E4388000000004E7E89083FB
:1002400000000004E7EC4E8000200005009C3860B0
:100250000001000500A04E800020003B9910010025
:1002600000000000000038A5FFFF7CC328AE7CC45E
:1002700029AE282500004082FFF04E80002060005B
:10028000000060000000386000014E800020800007
:10029000000000050618F821FF317C0802A6F801CD
:1002A00000E0FBE100C838810070481636DD3BE015
:1002B00000017BFFF80667FF000563FF06C4E87FC7
:1002C00000002C2300004182000C388000274801E8
:1002D0001AE9388000273860080048011695F87F31
:1002E0000000E88100704BFFC745E861007038806E
:1002F000002748011AC5E87F00004BFFC759E89F57
:1003000000007C641A14F87F000838600000EBE1FC
:1003100000C8E80100E0382100D07C0803A64E8028
:10032000002080000000000506B4800000000005E9
:1003300006BCE86300004E800020F88300004E8079
:10034000002000000000000000000000000000008D
:1003500000000000000000000000600000006000DD
:10036000000060000000F821FF617C0802A6FB810C
:100370000080FBA10088FBE10098FB410070FB615D
:100380000078F80100B07C9C23787C7D1B783BE0F2
:1003900000017BFFF80667E40005608409A438A02B
:1003A00000094BFFC6DD282300004082002867FFBC
:1003B000000563FF06C4E87F000028230000418297
:1003C0000014E87F0008389D00094BFFC661EBBFB1
:1003D00000007FA3EB784825A4BC7C0802A6F82186
:1003E000FE61FB610078FB810080FBA10088FBC1FE
:1003F0000090FBE10098F80101B07C7D1B787C9EA9
:1004000023783BE000017BFFF806EB8294F8EB9C3D
:100410000068EB9C0018EB620D58E93D001881293B
:100420000030792984022C09002940820058E89C78
:1004300000107885C1E478A546202C0500FF418294
:10044000001860840003F89C001038600006907E5D
:1004500000004800001460840002F89C001038601E
:10046000002C907E000080BC0004E89C0008E87B23
:1004700000007D232A14F93B00004802B6A1480081
:1004800000C47FA3EB787FC4F3784BFFDB057FFDCF
:10049000FB7867BD000563BD06D4807D000080BC8D
:1004A00000047C632A14907D0000E89C001078858D
:1004B000C1E478A546202C0500FF40820088E87B37
:1004C00000003880000038C000007CE3221480A7C0
:1004D00000007CC62A783884000428240400408266
:1004E000FFEC807D000078C607C67CC61B783860AC
:1004F0000000907D00007FE7FB7864E7000560E77F
:1005000008ECE8670000282300004182003838E743
:1005100000107C2330404082FFECE8A7FFF8E8FBA6
:1005200000008065000028030000418200188085DB
:1005300000047C633A149083000038A500084BFF48
:10054000FFE438600000EB610078EB810080EBA1F4
:100550000088EBC10090EBE10098E80101B0382180
:1005600001A07C0803A64E800020A06FF29B002C07
:10057000284A80000000000509348C0A948C000C85
:100580007AA6800000000005095C6B70282200013B
:10059000E53E80000000000509507FE3F53F0005BF
:1005A00008D5800000000005098000000000000060
:1005B0000000005E3AEC38600001005E3AF04E80C8
:1005C0000020002FB05C38600082000000000000B6
:1005D000E6A83BA0000100000000002040485F7436
:1005E0006F6F0020404C6C322E78002040506D6CB4
:1005F0002372002040546F6F740000000000000D53
:100600003E105F746F6F000D3E146C322E78000D3B
:100610003E186D6C2372000D3E1C6F6F740000005D
:100620000000505346726565646F6D000000000065
:1006300000000000000000000000000000000000BA
:1006400000000000000000000000000000000000AA
:10065000000000000000000000000000000000009A
:10066000000000000000000000000000000000008A
:101040000000000000001201000200000008AAAA2F
:10105000BBBB000000000001090216000101008076
:10106000010904000000FE0102000421B42F120156
:10107000000200000008AAAA555500000000000266
:1010800009024D0A01010080010904000000FE016F
:1010900002000904000000FE010200090400000033
:1010A000FE0102000904000000FE01020009040024
:1010B0000000FE0102000904000000FE0102000918
:1010C000000904000000FE0102000904000000FE07
:1010D0000102000904000000FE01020009040000F2
:1010E00000FE0102000904000000FE0102000904E4
:1010F000000000FE0102000904000000FE010200E1
:1011000002000904000000FE0102000904000000C2
:10111000FE0102000904000000FE010200090400B3
:101120000000FE0102000904000000FE01020009A7
:1011300004000000FE0102000904000000FE01029C
:101140000102000904000000FE0102000904000081
:1011500000FE0102000904000000FE010200090473
:10116000000000FE0102000904000000FE01020070
:101170000904000000FE0102000904000000FE0155
:10118000FE0102000904000000FE01020009040043
:101190000000FE0102000904000000FE0102000937
:1011A00004000000FE0102000904000000FE01022C
:1011B000000904000000FE0102000904000000FE16
:1011C00000FE0102000904000000FE010200090403
:1011D000000000FE0102000904000000FE01020000
:1011E0000904000000FE0102000904000000FE01E5
:1011F00002000904000000FE0102000904000000D2
:101200000000FE0102000904000000FE01020009C6
:1012100004000000FE0102000904000000FE0102BB
:10122000000904000000FE0102000904000000FEA5
:101230000102000904000000FE0102000904000090
:10124000000000FE0102000904000000FE0102008F
:101250000904000000FE0102000904000000FE0174
:1012600002000904000000FE010200090400000061
:10127000FE0102000904000000FE01020009040052
:1012800004000000FE0102000904000000FE01024B
:10129000000904000000FE0102000904000000FE35
:1012A0000102000904000000FE0102000904000020
:1012B00000FE0102000904000000FE010200090412
:1012C0000904000000FE0102000904000000FE0104
:1012D00002000904000000FE0102000904000000F1
:1012E000FE0102000904000000FE010200090400E2
:1012F0000000FE0102000904000000FE01020009D6
:10130000000904000000FE0102000904000000FEC4
:101310000102000904000000FE01020009040000AF
:1013200000FE0102000904000000FE0102000904A1
:10133000000000FE0102000904000000FE0102009E
:1013400002000904000000FE010200090400000080
:10135000FE0102000904000000FE01020009040071
:101360000000FE0102000904000000FE0102000965
:1013700004000000FE0102000904000000FE01025A
:101380000102000904000000FE010200090400003F
:1013900000FE0102000904000000FE010200090431
:1013A000000000FE0102000904000000FE0102002E
:1013B0000904000000FE0102000904000000FE0113
:1013C000FE0102000904000000FE01020009040001
:1013D0000000FE0102000904000000FE01020009F5
:1013E00004000000FE0102000904000000FE0102EA
:1013F000000904000000FE0102000904000000FED4
:1014000000FE0102000904000000FE0102000904C0
:10141000000000FE0102000904000000FE010200BD
:101420000904000000FE0102000904000000FE01A2
:1014300002000904000000FE01020009040000008F
:101440000000FE0102000904000000FE0102000984
:1014500004000000FE0102000904000000FE010279
:10146000000904000000FE0102000904000000FE63
:101470000102000904000000FE010200090400004E
:10148000000000FE0102000904000000FE0102004D
:101490000904000000FE0102000904000000FE0132
:1014A00002000904000000FE01020009040000001F
:1014B000FE0102000904000000FE01020009040010
:1014C00004000000FE0102000904000000FE010209
:1014D000000904000000FE0102000904000000FEF3
:1014E0000102000904000000FE01020009040000DE
:1014F00000FE0102000904000000FE0102000904D0
:101500000904000000FE0102000904000000FE01C1
:1015100002000904000000FE0102000904000000AE
:10152000FE0102000904000000FE0102000904009F
:101530000000FE0102000904000000FE0102000993
:10154000000904000000FE0102000904000000FE82
:101550000102000904000000FE010200090400006D
:1015600000FE0102000904000000FE01020009045F
:10157000000000FE0102000904000000FE0102005C
:1015800002000904000000FE01020009040000003E
:10159000FE0102000904000000FE0102000904002F
:1015A0000000FE0102000904000000FE0102000923
:1015B00004000000FE0102000904000000FE010218
:1015C0000102000904000000FE01020009040000FD
:1015D00000FE0102000904000000FE0102000904EF
:1015E000000000FE0102000904000000FE010200EC
:1015F0000904000000FE0102000904000000FE01D1
:10160000FE0102000904000000FE010200090400BE
:101610000000FE0102000904000000FE01020009B2
:1016200004000000FE0102000904000000FE0102A7
:10163000000904000000FE0102000904000000FE91
:1016400000FE0102000904000000FE01020009047E
:10165000000000FE0102000904000000FE0102007B
:101660000904000000FE0102000904000000FE0160
:1016700002000904000000FE01020009040000004D
:101680000000FE0102000904000000FE0102000942
:1016900004000000FE0102000904000000FE010237
:1016A000000904000000FE0102000904000000FE21
:1016B0000102000904000000FE010200090400000C
:1016C000000000FE0102000904000000FE0102000B
:1016D0000904000000FE0102000904000000FE01F0
:1016E00002000904000000FE0102000904000000DD
:1016F000FE0102000904000000FE010200090400CE
:1017000004000000FE0102000904000000FE0102C6
:10171000000904000000FE0102000904000000FEB0
:101720000102000904000000FE010200090400009B
:1017300000FE0102000904000000FE01020009048D
:101740000904000000FE0102000904000000FE017F
:1017500002000904000000FE01020009040000006C
:10176000FE0102000904000000FE0102000904005D
:101770000000FE0102000904000000FE0102000951
:10178000000904000000FE0102000904000000FE40
:101790000102000904000000FE010200090400002B
:1017A00000FE0102000904000000FE01020009041D
:1017B000000000FE0102000904000000FE0102001A
:1017C00002000904000000FE0102000904000000FC
:1017D000FE0102000904000000FE010200090400ED
:1017E0000000FE0102000904000000FE01020009E1
:1017F00004000000FE0102000904000000FE0102D6
:101800000102000904000000FE01020009040000BA
:1018100000FE0102000904000000FE0102000904AC
:10182000000000FE0102000904000000FE010200A9
:101830000904000000FE0102000904000000FE018E
:10184000FE0102000904000000FE0102000904007C
:101850000000FE0102000904000000FE0102000970
:1018600004000000FE0102000904000000FE010265
:10187000000904000000FE0102000904000000FE4F
:1018800000FE0102000904000000FE01020009043C
:10189000000000FE0102000904000000FE01020039
:1018A0000904000000FE0102000904000000FE011E
:1018B00002000904000000FE01020009040000000B
:1018C0000000FE0102000904000000FE0102000900
:1018D00004000000FE0102000904000000FE0102F5
:1018E000000904000000FE0102000904000000FEDF
:1018F0000102000904000000FE01020009040000CA
:10190000000000FE0102000904000000FE010200C8
:101910000904000000FE0102000904000000FE01AD
:1019200002000904000000FE01020009040000009A
:10193000FE0102000904000000FE0102000904008B
:1019400004000000FE0102000904000000FE010284
:10195000000904000000FE0102000904000000FE6E
:101960000102000904000000FE0102000904000059
:1019700000FE0102000904000000FE01020009044B
:101980000904000000FE0102000904000000FE013D
:1019900002000904000000FE01020009040000002A
:1019A000FE0102000904000000FE0102000904001B
:1019B0000000FE0102000904000000FE010200090F
:1019C000000904000000FE0102000904000000FEFE
:1019D0000102000904000000FE01020009040000E9
:1019E00000FE0102000904000000FE0102000904DB
:1019F000000000FE0102000904000000FE010200D8
:101A000002000904000000FE0102000904000000B9
:101A1000FE0102000904000000FE010200090400AA
:101A20000000FE0102000904000000FE010200099E
:101A300004000000FE0102000904000000FE010293
:101A40000102000904000000FE0102000904000078
:101A500000FE0102000904000000FE01020009046A
:101A6000000000FE0102000904000000FE01020067
:101A70000904000000FE0102000904000000FE014C
:101A8000FE0102000904000000FE0102000904003A
:101A90000000FE0102000904000000FE010200092E
:101AA00004000000FE0102000904000000FE010223
:101AB000000904000000FE0102000904000000FE0D
:101AC00000FE0102000904000000FE0102120100F4
:101AD0000200000008AAAA555500000000000309F2
:101AE00002120001010080010904000000FE010251
:101AF000000902120001010080090200000101003A
:101B000080010904000000FE01020009023000010A
:101B1000010080010904000000FE0102003E2100D6
:101B2000000000505346726565646D80000000003F
:101B300040000080000000003DDE30120100020085
:101B40000000084C05EB0200000000000109022023
:101B50000001000080010904000002FF00000007EE
:101B600005020208000007058102080000120100BA
:101B70000200000008AAAAC0DE000000000001095F
:101B800002120001010080010904000000FE0102B0
:101B9000000011241FBECFEFD0E2DEBFCDBF11E0A9
:101BA000A0E0B1E0E4EDFEE200E00BBF02C0079070
:101BB0000D92A431B107D9F711E0A4E1B1E001C061
:101BC0001D92A933B107E1F756D30C9468170C9412
:101BD0000000E0911301FF27E7FDF095E45FFE4F61
:101BE0008F778083E3EEF0E080838081806880835C
:101BF0000895982F809113018917B9F090931301DC
:101C0000E92FFF27E7FDF095DF01A45FBE4F8C9120
:101C100087FD1C92E45FFE4F80818F778093E30005
:101C20008091E30080688093E30008951F920F92F3
:101C30000FB60F9211248F9386EF809385008CE36B
:101C40008093840080912701882329F080912701C7
:101C50008150809327018F910F900FBE0F901F909E
:101C6000189528EB3BE040E951E005C0FA013197B7
:101C7000F1F72150304021153105C1F78BB928EB20
:101C80003BE0FA013197F1F721503040D1F76BB9C1
:101C900028EB3BE0EBCF81E08093E9008091E80006
:101CA00085FF18C0909121019923A1F08091220114
:101CB000882339F08091EB0088608093EB001092CC
:101CC00022019093F1008091E8008E778093E800E4
:101CD000109221010895FC01109226011092250115
:101CE00021E030E0C9010E2E02C0880F991F0A942E
:101CF000E2F7809321013197EE0FFF1FDF01A05023
:101D0000BF4F83E091E08D939C93EC5EFE4F318357
:101D100020830895FC01109224011092230121E0F8
:101D200030E0C9010E2E02C0880F991F0A94E2F715
:101D3000809321013197EE0FFF1FDF01A050BF4FAD
:101D400080E091E08D939C93EC5EFE4F3183208385
:101D50000895FA016091370170913801923081F154
:101D6000993209F4AEC0913009F0B4C080911301EA
:101D70008330D1F084303CF4813081F082308CF4B7
:101D8000882349F0A7C08530A9F0853084F08630DB
:101D900009F0A0C012C048ED50E06BC04CE051E02B
:101DA00068C046E450E165C04EE650E162C04DECCB
:101DB0005AE15FC04BE35BE15CC04DE65BE159C0BB
:101DC00090911301933009F440C094303CF4913069
:101DD000A1F092307CF5992359F07CC0953009F43C
:101DE00068C095300CF441C0963009F073C066C0ED
:101DF0004AEE50E029E130E071C0843008F06AC05A
:101E00006830710529F046E251E020E23FE004C06D
:101E10004EE151E028E030E0833009F05FC06930E6
:101E2000710508F45BC085E0809320018AE080930F
:101E3000270154C088E0809320018FE08093270120
:101E400048E550E126E130E049C0813049F469308D
:101E5000710530F08BE0809320018AE080932701A8
:101E600040E850E12DE43AE039C0882329F44FEDF1
:101E70005AE122E130E032C0813059F46830710516
:101E800019F049EF5AE1F5CF41EF5AE128E030E08F
:101E900025C08230F9F46930710530F080E180931B
:101EA000200184E1809327014BE05BE120E330E0F7
:101EB00015C04DE45BE120E230E010C04FE75BE18C
:101EC000D8CF80911301882329F443E051E029E021
:101ED00030E004C040E050E020E030E05183408337
:101EE000C9010895089508950895089508950895DD
:101EF00081E061EC42E046D3882329F480E090E061
:101F000060E470E0AEDE82E060EC42E03BD3882328
:101F100029F480E090E060E470E0A3CE08951F9380
:101F2000809113018630A1F4809132018A3A09F040
:101F300023C18091E800877F8093E8008091E800CA
:101F40008E778093E800A2D38FE18093200119C19E
:101F5000853059F4809132018B3009F00DC18091A8
:101F6000E800877F8093E8002EC0882309F004C131
:101F700080913101803A71F580913201882309F016
:101F8000FBC08091330190913401892B09F0F4C09A
:101F90008091350190913601892B09F0EDC0809137
:101FA000370190913801049709F0E6C08091E8006C
:101FB000877F8093E8001092F1001092F100109258
:101FC000F1001092F1008091E8008E778093E80094
:101FD0005DD3D7C0833AB1F580913201882309F0EF
:101FE000CBC08091330190913401892B09F0C4C09A
:101FF0008091370190913801049709F0BDC0E091BC
:1020000035018E2F8150863008F0BBC08091E800EA
:10201000877F8093E800F0E03197EE0FFF1FDF012C
:10202000A050BF4F8C9111969C918093F10090939A
:10203000F100EC5EFE4F808191818093F1009093DE
:10204000F100C1CF833209F097C080913201833013
:1020500009F048C08091370190913801892B09F02F
:1020600041C010913501812F8150863008F089C020
:102070008091E800877F8093E8008091E8008E7768
:102080008093E80003D38091330190913401843030
:10209000910591F0089709F074C0163009F071C0ED
:1020A00080912001882309F06CC082E08093200198
:1020B0008FE08093270165C0E12FF0E081E090E0A0
:1020C000012E02C0880F991F0A94E2F78093210124
:1020D000EE0FFF1FEE5EFE4F808191818061918344
:1020E00080834FC080913201813009F045C08091DA
:1020F000370190913801892B09F03EC010913501CC
:10210000812F8150863008F03CC08091E800877FA5
:102110008093E8008091E8008E778093E800B6D243
:1021200080913301909134018031910519F04497E9
:1021300041F511C0212F30E0F901EE0FFF1FEE5ED7
:10214000FE4F808191818E7F918380833093240123
:102150002093230116C0212F30E0F901EE0FFF1F5D
:10216000EE5EFE4F808191818F7E918380833093DC
:1021700026012093250105C080E490E060E070E036
:1021800070DD1F91089582E08093E9008091E8005E
:1021900085FF1CC088E090E060E070E058D6809138
:1021A000E8008B778093E80080912A0190912B01C1
:1021B000089690932B0180932A018034910534F086
:1021C00083E18093200182E38093270181E0809363
:1021D000E9008091E80085FF2DC0809120018331C6
:1021E00049F580912701882329F580912801909154
:1021F000290180349105F4F488569F4F68E070E01F
:1022000040E050E0E3D58091E8008E778093E800CD
:10221000809128019091290108969093290180933B
:1022200028018034910534F084E1809320018FE00F
:1022300080932701089584B7877F84BF88E10FB614
:10224000F89480936000109260000FBE80E090E0F0
:1022500020E80FB6F89420936100809361000FBED0
:1022600083E08093810081E080936F00569A5E9AAC
:10227000A8D2789408952F923F924F925F926F92D6
:102280007F928F929F92AF92BF92CF92DF92EF9206
:10229000FF920F931F93CFDF80E48BB91092200140
:1022A00080E0A7DCF7E02F2E0FE0E1E17E2E72E167
:1022B000672E65E1562E56E1452E4DE2342E37E16C
:1022C000C32E28E1B22E14E199E1A92E8AE1982EBD
:1022D000BBE18B2EACE1FA2EFDE1EF2EEEE1DE2E1E
:1022E00080911301882309F4D6DC80911301853095
:1022F00009F449DFDAD580912001823051F48091D0
:102300002701882331F481E090E0E5DC83E08093CD
:10231000200180912001833059F480912501909112
:102320002601019729F481E064DC84E08093200198
:1023300080912001853059F480912701882339F458
:1023400058DC82E090E0C7DC86E080932001809139
:102350002001863051F48091250190912601029749
:1023600021F482E046DC2092200180912001883017
:1023700059F480912701882339F43BDC83E090E015
:10238000AADC89E08093200180912001893059F4F2
:102390008091250190912601039729F483E029DC9F
:1023A0008AE080932001809120018B3059F4809144
:1023B0002701882339F41DDC82E090E0ABDC8CE05F
:1023C00080932001809120018C3059F48091230169
:1023D00090912401029729F48DE0809320010093CD
:1023E0002701809120018D3051F4809127018823AD
:1023F00031F484E090E06FDC8EE0809320018091E6
:1024000020018E3051F4809125019091260104978E
:1024100021F484E0EEDB00932001809120018031E3
:1024200069F480912701882349F4E3DB81E08093FC
:10243000220185E090E04FDC709220018091200124
:10244000813151F48091250190912601059721F465
:1024500085E0CFDB6092200180912001843169F416
:1024600080912701882349F4C4DB81E08093220115
:1024700083E090E04FDC5092200180912001853173
:1024800051F48091230190912401039721F440920B
:1024900020013092270180912001863151F48091F2
:1024A0002701882331F4A5DB85E090E033DCC0927E
:1024B000200180912001873151F480912301909176
:1024C0002401059721F4B0922001109327018091F7
:1024D0002001883151F480912701882331F489DB70
:1024E00084E090E017DCA0922001809120018931E6
:1024F00051F48091230190912401049721F490924A
:10250000200110932701809120018A3151F480919C
:102510002701882331F46DDB81E090E0FBDB8092C2
:102520002001809120018B3151F480912301909101
:102530002401019721F4F09220011093270180914A
:1025400020018C3151F480912701882331F451DB33
:1025500086E090E0C0DBE0922001809120018D3187
:1025600051F48091250190912601069721F486E08F
:1025700040DBD0922001809120018F3109F0B0CE54
:102580001BB8AECE1F93DF93CF93CDB7DEB72E9798
:102590000FB6F894DEBF0FBECDBF182F742F9E016B
:1025A0002F5F3F4FFE013896D901AF018A2F821B62
:1025B0008093E9008091EC008D938091ED008193F0
:1025C000A417B50799F7812F90E0FE01E80FF91FD6
:1025D0006183A80FB91F7C9391E09093E90010925A
:1025E000F0001092E8001092ED008091EB008E7FD9
:1025F0008093EB009F5F973081F720E030E0BE01D1
:10260000685F7F4FAE014F5F5F4FFB01E20FF31F2B
:10261000908191FF15C02093E9008091EB008160CB
:102620008093EB00FA01E20FF31F80818093EC00AE
:102630009093ED008091EE0087FD02C080E008C01D
:102640002F5F3F4F2730310501F71093E90081E0FC
:102650002E960FB6F894DEBF0FBECDBFCF91DF919F
:102660001F9108951092F40090E09093E900109269
:10267000F0001092E8001092ED008091EB008E7F48
:102680008093EB009F5F973081F70895809131012F
:1026900088239CF404C0809130018823B9F0809194
:1026A000E80082FFF8CF8091E8008B778093E80004
:1026B000089580913001882349F08091E80080FFDF
:1026C000F8CF8091E8008E778093E800089594E633
:1026D0008091EC0080FF05C08091E80080FF05C07C
:1026E00025C08091E80082FD21C0809130018823BF
:1026F00011F482E0089580913001853011F483E077
:1027000008958091EB0085FF02C081E008958091DB
:10271000E10082FFDDCF8091E1008B7F8093E100BB
:10272000992311F484E008959150D2CF80E0089568
:1027300057D05ED01092300110922E0110922D01D0
:1027400010922C0184E189BD89B5826089BD09B4EC
:1027500000FEFDCF8091D800982F9F779093D800EE
:1027600080688093D8008091D70081608093D700E3
:102770008091D8008F7D8093D8008091E0008B7F7E
:102780008093E0008091E0008E7F8093E000809154
:10279000E1008E7F8093E1008091E2008160809370
:1027A000E2008091E100877F8093E1008091E20068
:1027B00088608093E2008091D80081608093D80087
:1027C0000895E7EDF0E0808180688083B1DFE8ED77
:1027D000F0E080818061808381E080932F01089503
:1027E000E8EDF0E080818C7F80831092E200089514
:1027F0001092DA001092E10008951F920F920FB626
:102800000F920BB60F9211242F933F934F935F9328
:102810006F937F938F939F93AF93BF93EF93FF93A8
:102820008091DA0080FF15C08091D80080FF11C030
:102830008091DA008E7F8093DA008091D90080FF4A
:1028400005C081E0809330014DDB03C01092300160
:102850004ADB8091E10080FF1DC08091E20080FF93
:1028600019C08091E1008E7F8093E1008091E200A9
:102870008E7F8093E2008091E20080618093E2008D
:102880008091D80080628093D80019BC85E0809345
:1028900030012ADB8091E10084FF2AC08091E200B0
:1028A00084FF26C084E189BD89B5826089BD09B4F1
:1028B00000FEFDCF8091D8008F7D8093D80080915D
:1028C000E1008F7E8093E1008091E2008F7E809313
:1028D000E2008091E20081608093E20080912E010D
:1028E000882311F483E001C084E080933001FDDA95
:1028F0008091E10083FF23C08091E20083FF1FC02D
:102900008091E100877F8093E10082E08093300135
:1029100010922E018091E1008E7F8093E1008091E2
:10292000E2008E7F8093E2008091E20080618093DC
:10293000E20098DE80E060E042E024DED7DA8091B9
:10294000E10082FF0AC08091E20082FF06C0809110
:10295000E1008B7F8093E100CADAFF91EF91BF9194
:10296000AF919F918F917F916F915F914F913F9127
:102970002F910F900BBE0F900FBE0F901F901895C8
:102980001F93DF93CF93CDB7DEB7AC970FB6F89414
:10299000DEBF0FBECDBFE1E3F1E08091F100819396
:1029A00021E0E933F207C9F780913101309132011A
:1029B000353009F487C0363040F43130C9F1313058
:1029C00070F0333009F028C133C0383009F4ECC05E
:1029D000393009F4FBC0363009F01EC192C080388E
:1029E00021F0823809F018C108C080912D01882398
:1029F00011F093E013C091E011C080913501877010
:102A00008093E9008091EB0090E025E09695879512
:102A10002A95E1F7982F91701092E9008091E800D3
:102A2000877F8093E8009093F1001092F100C7C077
:102A3000882319F0823009F0EFC090E08F71907018
:102A4000009721F0029709F0E8C00CC08091330193
:102A5000813009F0E2C010922D01333069F5809386
:102A60002D012AC080913301882331F52091350151
:102A7000277009F4D2C02093E9008091EB0080FF19
:102A8000CCC0333021F48091EB00806213C0809180
:102A9000EB0080618093EB0081E090E002C0880F42
:102AA000991F2A95E2F78093EA001092EA0080913C
:102AB000EB0088608093EB001092E9008091E800C1
:102AC000877F80C0882309F0A7C0109133018091CF
:102AD000E800877F8093E800D9DD05C08091300150
:102AE000882309F49AC08091E80080FFF7CF812FF6
:102AF0008F7711F492E001C093E09093300169D890
:102B00008CC0809133019091340123E08C3D920779
:102B100099F55FB7F894DE0115964EE020E030E0BD
:102B200061E2E42FF0E060935700849120FF03C03E
:102B300082958F704F5F982F9F70892F805D8A33A9
:102B400008F0895F8C9311961C9211972F5F3F4F6D
:102B500012962431310529F75FBF8AE28B8383E027
:102B60008C838091E800877F8093E800CE010396F4
:102B70006AE270E06AD012C060913501AE014F5F29
:102B80005F4FE7D8BC01009709F447C08091E80087
:102B9000877F8093E80089819A81B7D08091E8008F
:102BA0008B778093E80039C08038B1F58091E800D8
:102BB000877F8093E80080912E018093F1008091BF
:102BC000E8008E778093E80061DD27C0882321F537
:102BD00080E091E060E0AE014F5F5F4FBAD8892B93
:102BE000E1F090913301E981FA817196E491E9175E
:102BF000A0F08091E800877F8093E80090932E01F9
:102C000045DD80912E01882311F483E001C084E02A
:102C1000809330016DD901C082D98091E80083FF93
:102C20000AC08091EB0080628093EB008091E80005
:102C3000877F8093E800AC960FB6F894DEBF0FBE96
:102C4000CDBFCF91DF911F9108959C014091370135
:102C5000509138014617570718F4F90120E03DC09C
:102C60006115710511F0AB01F8CF8091E8008E7706
:102C70008093E80040E050E0F0CF8091E80083FFCF
:102C800002C081E008958091E80082FD34C0809107
:102C900030018823B1F1809130018530A1F180911C
:102CA000E80080FF1AC08091F2009091F300982F05
:102CB00006C081918093F100415050409F5F4115C3
:102CC000510511F09830A8F320E0983009F421E084
:102CD0008091E8008E778093E8004115510569F6F0
:102CE000222359F608C080913001882351F0809149
:102CF0003001853041F08091E80082FFF4CF80E020
:102D0000089582E0089583E008959C014091370181
:102D1000509138014617570710F490E03FC06115F5
:102D2000710511F0AB01F9CF8091E8008E778093A7
:102D3000E80040E050E0F1CF8091E80083FF02C05E
:102D400081E008958091E80082FD36C080913001D5
:102D50008823C1F1809130018530B1F18091E80084
:102D600080FF1CC08091F2009091F30009C0F9012E
:102D70002F5F3F4FE491E093F100415050408F5F4F
:102D80004115510511F0883090F390E0883009F436
:102D900091E08091E8008E778093E800411551051D
:102DA00059F6992349F608C080913001882351F0E3
:102DB00080913001853041F08091E80082FFF4CFAE
:102DC00080E0089582E0089583E00895BF92CF9255
:102DD000DF92EF92FF920F931F93CF93DF93F82E22
:102DE000E92E8B016A0173DCB82E882329F58F2D1B
:102DF0009E2D9C01E9011DC08091E80085FD12C057
:102E00008091E8008E778093E800C114D10431F0FE
:102E1000F6010995813011F485E00FC058DC882354
:102E200041F00BC0FE012196E491E093F1000150C6
:102E300010400115110501F78B2DDF91CF911F91E6
:102E40000F91FF90EF90DF90CF90BF900895FF9289
:102E50000F931F93CF93DF93EC018B0138DCF82E97
:102E60008823D1F01BC08091E80085FD12C08091BD
:102E7000E8008B778093E8000115110531F0F80127
:102E80000995813011F485E00AC021DC882321F006
:102E900006C08091F1002197209729F78F2DDF91AF
:102EA000CF911F910F91FF9008951F938091300152
:102EB000882361F01091E9001092E9008091E80008
:102EC00083FF01C05DDD17701093E9001F91089525
:042ED000F894FFCFA4
:102ED400000100010001000100010001FFFFFFFFEC
:042EE400FFFFFFFFEE
:00000001FF
